:020000006E2868
:0C000600831221088A00200882000800F4
:0C00120007308312DD00DD0B0C28080015
:10001E00FF308312A400FF30A500FF30A600FF3092
:10002E00C3309F0540309F05F03083169F04831226
:06003E009F171F140800CB
:10004400C33083129F0540309F05F03083169F0410
:1000540083129F172908D000D00D5010D00D5010D6
:1000640050089F041F1409209F149F1C3B28000064
:1000740037281F101E08D100D00183161E08D00493
:060084000030D104080069
:10008A0003208A110A128000840AA00A0319A10A0D
:08009A00D003031D45280800F6
:1000A200803083122306D000803028065002031DC0
:1000B2005C2827082202031C602807146D28803060
:1000C2002306D000803028065002031D6A28270824
:0A00D200220203186D280710080031
:1000DC00043083169F00910111149115870183122E
:1000EC008701FF30850085010F20A90122205008CF
:1000FC00A2005108A3000330A90022205008A70039
:10010C005108A8000130A90051200330DB008A30CF
:10011C00DC005530DD00DD0B9128DC0B9128DB0B6E
:0A012C009128000000007B289A28AB
:02400E00E4319B
:00000001FF
